{"abi":[{"type":"function","name":"allTipJars","inputs":[{"name":"","type":"uint256","internalType":"uint256"}],"outputs":[{"name":"","type":"address","internalType":"address"}],"stateMutability":"view"},{"type":"function","name":"createTipJar","inputs":[{"name":"slug","type":"string","internalType":"string"},{"name":"cid","type":"string","internalType":"string"}],"outputs":[{"name":"","type":"address","internalType":"address"}],"stateMutability":"nonpayable"},{"type":"function","name":"getAllTipJars","inputs":[],"outputs":[{"name":"","type":"address[]","internalType":"address[]"}],"stateMutability":"view"},{"type":"function","name":"getCIDByAddress","inputs":[{"name":"tipJar","type":"address","internalType":"address"}],"outputs":[{"name":"","type":"string","internalType":"string"}],"stateMutability":"view"},{"type":"function","name":"getCIDBySlug","inputs":[{"name":"slug","type":"string","internalType":"string"}],"outputs":[{"name":"","type":"string","internalType":"string"}],"stateMutability":"view"},{"type":"function","name":"getTipJarBySlug","inputs":[{"name":"slug","type":"string","internalType":"string"}],"outputs":[{"name":"","type":"address","internalType":"address"}],"stateMutability":"view"},{"type":"function","name":"getTipJarsByOwner","inputs":[{"name":"owner","type":"address","internalType":"address"}],"outputs":[{"name":"","type":"address[]","internalType":"address[]"}],"stateMutability":"view"},{"type":"function","name":"ownerTipJars","inputs":[{"name":"","type":"address","internalType":"address"},{"name":"","type":"uint256","internalType":"uint256"}],"outputs":[{"name":"","type":"address","internalType":"address"}],"stateMutability":"view"},{"type":"function","name":"slugToCID","inputs":[{"name":"","type":"string","internalType":"string"}],"outputs":[{"name":"","type":"string","internalType":"string"}],"stateMutability":"view"},{"type":"function","name":"slugsToTipJar","inputs":[{"name":"","type":"string","internalType":"string"}],"outputs":[{"name":"","type":"address","internalType":"address"}],"stateMutability":"view"},{"type":"function","name":"tipJarToSlug","inputs":[{"name":"","type":"address","internalType":"address"}],"outputs":[{"name":"","type":"string","internalType":"string"}],"stateMutability":"view"},{"type":"function","name":"updateTipJarMetadata","inputs":[{"name":"slug","type":"string","internalType":"string"},{"name":"newCid","type":"string","internalType":"string"}],"outputs":[{"name":"","type":"bool","internalType":"bool"}],"stateMutability":"nonpayable"},{"type":"event","name":"TipJarCreated","inputs":[{"name":"owner","type":"address","indexed":true,"internalType":"address"},{"name":"tipJar","type":"address","indexed":false,"internalType":"address"},{"name":"slug","type":"string","indexed":false,"internalType":"string"},{"name":"cid","type":"string","indexed":false,"internalType":"string"}],"anonymous":false},{"type":"event","name":"TipJarMetadataUpdated","inputs":[{"name":"slug","type":"string","indexed":true,"internalType":"string"},{"name":"oldCid","type":"string","indexed":false,"internalType":"string"},{"name":"newCid","type":"string","indexed":false,"internalType":"string"}],"anonymous":false},{"type":"error","name":"InvalidCID","inputs":[]},{"type":"error","name":"InvalidSlug","inputs":[]},{"type":"error","name":"SlugAlreadyExists","inputs":[{"name":"slug","type":"string","internalType":"string"}]}],"bytecode":{"object":"0x608060405234801561000f575f80fd5b506130368061001d5f395ff3fe608060405234801562000010575f80fd5b5060043610620000c2575f3560e01c8063812bdd6d1162000079578063812bdd6d14620001f6578063a5349f8d146200022c578063b207f7b51462000262578063dbeb02e61462000298578063ddfb543a14620002ce578063ff62d246146200030457620000c2565b8063082f5f4314620000c6578063358fcaf914620000fc5780634ddc75f914620001325780635a189038146200016857806367e4043c146200019e5780636bdfa20314620001c0575b5f80fd5b620000e46004803603810190620000de91906200124d565b6200033a565b604051620000f3919062001313565b60405180910390f35b6200011a60048036038101906200011491906200132e565b6200084b565b60405162000129919062001401565b60405180910390f35b6200015060048036038101906200014a919062001452565b62000906565b6040516200015f919062001549565b60405180910390f35b620001866004803603810190620001809190620015a3565b620009d0565b60405162000195919062001313565b60405180910390f35b620001a862000a19565b604051620001b7919062001549565b60405180910390f35b620001de6004803603810190620001d891906200132e565b62000aa6565b604051620001ed919062001313565b60405180910390f35b6200021460048036038101906200020e919062001452565b62000aed565b60405162000223919062001401565b60405180910390f35b6200024a60048036038101906200024491906200132e565b62000b90565b60405162000259919062001313565b60405180910390f35b6200028060048036038101906200027a91906200132e565b62000bd7565b6040516200028f919062001401565b60405180910390f35b620002b66004803603810190620002b09190620015e8565b62000c8f565b604051620002c5919062001313565b60405180910390f35b620002ec6004803603810190620002e691906200124d565b62000ccb565b604051620002fb919062001634565b60405180910390f35b6200032260048036038101906200031c919062001452565b62000fe2565b60405162000331919062001401565b60405180910390f35b5f825f8190505f8151036200037b576040517f290a831500000000000000000000000000000000000000000000000000000000815260040160405180910390fd5b5f5b8151811015620004e9575f8282815181106200039e576200039d6200164f565b5b602001015160f81c60f81b90505f603060f81b827effffffffffffffffffffffffffffffffffffffffffffffffffffffffffffff191610158015620004095750603960f81b827effffffffffffffffffffffffffffffffffffffffffffffffffffffffffffff191611155b806200046e5750606160f81b827effffffffffffffffffffffffffffffffffffffffffffffffffffffffffffff1916101580156200046d5750607a60f81b827effffffffffffffffffffffffffffffffffffffffffffffffffffffffffffff191611155b5b806200049f5750602d60f81b827effffffffffffffffffffffffffffffffffffffffffffffffffffffffffffff1916145b905080620004d9576040517f290a831500000000000000000000000000000000000000000000000000000000815260040160405180910390fd5b505080806001019150506200037d565b50835f81510362000526576040517fe1d766f400000000000000000000000000000000000000000000000000000000815260040160405180910390fd5b5f73ffffffffffffffffffffffffffffffffffffffff165f876040516200054e9190620016bc565b90815260200160405180910390205f9054906101000a900473ffffffffffffffffffffffffffffffffffffffff1673ffffffffffffffffffffffffffffffffffffffff1614620005d757856040517fc7a3bc01000000000000000000000000000000000000000000000000000000008152600401620005ce919062001401565b60405180910390fd5b5f33604051620005e790620010d6565b620005f3919062001313565b604051809103905ff0801580156200060d573d5f803e3d5ffd5b5090505f819050600481908060018154018082558091505060019003905f5260205f20015f9091909190916101000a81548173ffffffffffffffffffffffffffffffffffffffff021916908373ffffffffffffffffffffffffffffffffffffffff160217905550805f89604051620006869190620016bc565b90815260200160405180910390205f6101000a81548173ffffffffffffffffffffffffffffffffffffffff021916908373ffffffffffffffffffffffffffffffffffffffff1602179055508760015f8373ffffffffffffffffffffffffffffffffffffffff1673ffffffffffffffffffffffffffffffffffffffff1681526020019081526020015f2090816200071d9190620018f8565b5086600289604051620007319190620016bc565b908152602001604051809103902090816200074d9190620018f8565b5060035f3373ffffffffffffffffffffffffffffffffffffffff1673ffffffffffffffffffffffffffffffffffffffff1681526020019081526020015f2081908060018154018082558091505060019003905f5260205f20015f9091909190916101000a81548173ffffffffffffffffffffffffffffffffffffffff021916908373ffffffffffffffffffffffffffffffffffffffff1602179055503373ffffffffffffffffffffffffffffffffffffffff167f5a353b8fd63c4e9b7e9b08a33d5ac0ec8b0fd9d4c69a0e7ea44f4a7357bf5eb8828a8a6040516200083593929190620019dc565b60405180910390a2809550505050505092915050565b6002818051602081018201805184825260208301602085012081835280955050505050505f915090508054620008819062001701565b80601f0160208091040260200160405190810160405280929190818152602001828054620008af9062001701565b8015620008fe5780601f10620008d457610100808354040283529160200191620008fe565b820191905f5260205f20905b815481529060010190602001808311620008e057829003601f168201915b505050505081565b606060035f8373ffffffffffffffffffffffffffffffffffffffff1673ffffffffffffffffffffffffffffffffffffffff1681526020019081526020015f20805480602002602001604051908101604052809291908181526020018280548015620009c457602002820191905f5260205f20905b815f9054906101000a900473ffffffffffffffffffffffffffffffffffffffff1673ffffffffffffffffffffffffffffffffffffffff16815260200190600101908083116200097a575b50505050509050919050565b6003602052815f5260405f208181548110620009ea575f80fd5b905f5260205f20015f915091509054906101000a900473ffffffffffffffffffffffffffffffffffffffff1681565b6060600480548060200260200160405190810160405280929190818152602001828054801562000a9c57602002820191905f5260205f20905b815f9054906101000a900473ffffffffffffffffffffffffffffffffffffffff1673ffffffffffffffffffffffffffffffffffffffff168152602001906001019080831162000a52575b5050505050905090565b5f808260405162000ab89190620016bc565b90815260200160405180910390205f9054906101000a900473ffffffffffffffffffffffffffffffffffffffff169050919050565b6001602052805f5260405f205f91509050805462000b0b9062001701565b80601f016020809104026020016040519081016040528092919081815260200182805462000b399062001701565b801562000b885780601f1062000b5e5761010080835404028352916020019162000b88565b820191905f5260205f20905b81548152906001019060200180831162000b6a57829003601f168201915b505050505081565b5f818051602081018201805184825260208301602085012081835280955050505050505f915054906101000a900473ffffffffffffffffffffffffffffffffffffffff1681565b606060028260405162000beb9190620016bc565b9081526020016040518091039020805462000c069062001701565b80601f016020809104026020016040519081016040528092919081815260200182805462000c349062001701565b801562000c835780601f1062000c595761010080835404028352916020019162000c83565b820191905f5260205f20905b81548152906001019060200180831162000c6557829003601f168201915b50505050509050919050565b6004818154811062000c9f575f80fd5b905f5260205f20015f915054906101000a900473ffffffffffffffffffffffffffffffffffffffff1681565b5f815f81510362000d08576040517fe1d766f400000000000000000000000000000000000000000000000000000000815260040160405180910390fd5b5f808560405162000d1a9190620016bc565b90815260200160405180910390205f9054906101000a900473ffffffffffffffffffffffffffffffffffffffff1690505f73ffffffffffffffffffffffffffffffffffffffff168173ffffffffffffffffffffffffffffffffffffffff160362000dbb576040517f08c379a000000000000000000000000000000000000000000000000000000000815260040162000db29062001a73565b60405180910390fd5b5f8190503373ffffffffffffffffffffffffffffffffffffffff168173ffffffffffffffffffffffffffffffffffffffff16638da5cb5b6040518163ffffffff1660e01b8152600401602060405180830381865afa15801562000e20573d5f803e3d5ffd5b505050506040513d601f19601f8201168201806040525081019062000e46919062001aa9565b73ffffffffffffffffffffffffffffffffffffffff161462000e9f576040517f08c379a000000000000000000000000000000000000000000000000000000000815260040162000e969062001b27565b60405180910390fd5b5f60028760405162000eb29190620016bc565b9081526020016040518091039020805462000ecd9062001701565b80601f016020809104026020016040519081016040528092919081815260200182805462000efb9062001701565b801562000f4a5780601f1062000f205761010080835404028352916020019162000f4a565b820191905f5260205f20905b81548152906001019060200180831162000f2c57829003601f168201915b505050505090508560028860405162000f649190620016bc565b9081526020016040518091039020908162000f809190620018f8565b508660405162000f919190620016bc565b60405180910390207f3f6958c2ea14eed9ea3a49c45f15d98cd60e4d3b6bc995f023733f38d5f5aeb3828860405162000fcc92919062001b47565b60405180910390a2600194505050505092915050565b6060600260015f8473ffffffffffffffffffffffffffffffffffffffff1673ffffffffffffffffffffffffffffffffffffffff1681526020019081526020015f2060405162001032919062001c0c565b908152602001604051809103902080546200104d9062001701565b80601f01602080910402602001604051908101604052809291908181526020018280546200107b9062001701565b8015620010ca5780601f10620010a057610100808354040283529160200191620010ca565b820191905f5260205f20905b815481529060010190602001808311620010ac57829003601f168201915b50505050509050919050565b6113dc8062001c2583390190565b5f604051905090565b5f80fd5b5f80fd5b5f80fd5b5f80fd5b5f601f19601f8301169050919050565b7f4e487b71000000000000000000000000000000000000000000000000000000005f52604160045260245ffd5b6200114582620010fd565b810181811067ffffffffffffffff821117156200116757620011666200110d565b5b80604052505050565b5f6200117b620010e4565b90506200118982826200113a565b919050565b5f67ffffffffffffffff821115620011ab57620011aa6200110d565b5b620011b682620010fd565b9050602081019050919050565b828183375f83830152505050565b5f620011e7620011e1846200118e565b62001170565b905082815260208101848484011115620012065762001205620010f9565b5b62001213848285620011c3565b509392505050565b5f82601f830112620012325762001231620010f5565b5b813562001244848260208601620011d1565b91505092915050565b5f8060408385031215620012665762001265620010ed565b5b5f83013567ffffffffffffffff811115620012865762001285620010f1565b5b62001294858286016200121b565b925050602083013567ffffffffffffffff811115620012b857620012b7620010f1565b5b620012c6858286016200121b565b9150509250929050565b5f73ffffffffffffffffffffffffffffffffffffffff82169050919050565b5f620012fb82620012d0565b9050919050565b6200130d81620012ef565b82525050565b5f602082019050620013285f83018462001302565b92915050565b5f60208284031215620013465762001345620010ed565b5b5f82013567ffffffffffffffff811115620013665762001365620010f1565b5b62001374848285016200121b565b91505092915050565b5f81519050919050565b5f82825260208201905092915050565b5f5b83811015620013b657808201518184015260208101905062001399565b5f8484015250505050565b5f620013cd826200137d565b620013d9818562001387565b9350620013eb81856020860162001397565b620013f681620010fd565b840191505092915050565b5f6020820190508181035f8301526200141b8184620013c1565b905092915050565b6200142e81620012ef565b811462001439575f80fd5b50565b5f813590506200144c8162001423565b92915050565b5f602082840312156200146a5762001469620010ed565b5b5f62001479848285016200143c565b91505092915050565b5f81519050919050565b5f82825260208201905092915050565b5f819050602082019050919050565b620014b681620012ef565b82525050565b5f620014c98383620014ab565b60208301905092915050565b5f602082019050919050565b5f620014ed8262001482565b620014f981856200148c565b935062001506836200149c565b805f5b838110156200153c578151620015208882620014bc565b97506200152d83620014d5565b92505060018101905062001509565b5085935050505092915050565b5f6020820190508181035f830152620015638184620014e1565b905092915050565b5f819050919050565b6200157f816200156b565b81146200158a575f80fd5b50565b5f813590506200159d8162001574565b92915050565b5f8060408385031215620015bc57620015bb620010ed565b5b5f620015cb858286016200143c565b9250506020620015de858286016200158d565b9150509250929050565b5f602082840312156200160057620015ff620010ed565b5b5f6200160f848285016200158d565b91505092915050565b5f8115159050919050565b6200162e8162001618565b82525050565b5f602082019050620016495f83018462001623565b92915050565b7f4e487b71000000000000000000000000000000000000000000000000000000005f52603260045260245ffd5b5f81905092915050565b5f62001692826200137d565b6200169e81856200167c565b9350620016b081856020860162001397565b80840191505092915050565b5f620016c9828462001686565b915081905092915050565b7f4e487b71000000000000000000000000000000000000000000000000000000005f52602260045260245ffd5b5f60028204905060018216806200171957607f821691505b6020821081036200172f576200172e620016d4565b5b50919050565b5f819050815f5260205f209050919050565b5f6020601f8301049050919050565b5f82821b905092915050565b5f60088302620017937fffffffffffffffffffffffffffffffffffffffffffffffffffffffffffffffff8262001756565b6200179f868362001756565b95508019841693508086168417925050509392505050565b5f819050919050565b5f620017e0620017da620017d4846200156b565b620017b7565b6200156b565b9050919050565b5f819050919050565b620017fb83620017c0565b620018136200180a82620017e7565b84845462001762565b825550505050565b5f90565b620018296200181b565b62001836818484620017f0565b505050565b5b818110156200185d57620018515f826200181f565b6001810190506200183c565b5050565b601f821115620018ac57620018768162001735565b620018818462001747565b8101602085101562001891578190505b620018a9620018a08562001747565b8301826200183b565b50505b505050565b5f82821c905092915050565b5f620018ce5f1984600802620018b1565b1980831691505092915050565b5f620018e88383620018bd565b9150826002028217905092915050565b62001903826200137d565b67ffffffffffffffff8111156200191f576200191e6200110d565b5b6200192b825462001701565b6200193882828562001861565b5f60209050601f8311600181146200196e575f841562001959578287015190505b620019658582620018db565b865550620019d4565b601f1984166200197e8662001735565b5f5b82811015620019a75784890151825560018201915060208501945060208101905062001980565b86831015620019c75784890151620019c3601f891682620018bd565b8355505b6001600288020188555050505b505050505050565b5f606082019050620019f15f83018662001302565b818103602083015262001a058185620013c1565b9050818103604083015262001a1b8184620013c1565b9050949350505050565b7f5469704a6172206e6f7420666f756e64000000000000000000000000000000005f82015250565b5f62001a5b60108362001387565b915062001a688262001a25565b602082019050919050565b5f6020820190508181035f83015262001a8c8162001a4d565b9050919050565b5f8151905062001aa38162001423565b92915050565b5f6020828403121562001ac15762001ac0620010ed565b5b5f62001ad08482850162001a93565b91505092915050565b7f4e6f7420746865206f776e6572000000000000000000000000000000000000005f82015250565b5f62001b0f600d8362001387565b915062001b1c8262001ad9565b602082019050919050565b5f6020820190508181035f83015262001b408162001b01565b9050919050565b5f6040820190508181035f83015262001b618185620013c1565b9050818103602083015262001b778184620013c1565b90509392505050565b5f815462001b8e8162001701565b62001b9a81866200167c565b9450600182165f811462001bb7576001811462001bcd5762001c03565b60ff198316865281151582028601935062001c03565b62001bd88562001735565b5f5b8381101562001bfb5781548189015260018201915060208101905062001bda565b838801955050505b50505092915050565b5f62001c19828462001b80565b91508190509291505056fe608060405234801562000010575f80fd5b50604051620013dc380380620013dc8339818101604052810190620000369190620001f0565b805f73ffffffffffffffffffffffffffffffffffffffff168173ffffffffffffffffffffffffffffffffffffffff1603620000aa575f6040517f1e4fbdf7000000000000000000000000000000000000000000000000000000008152600401620000a1919062000231565b60405180910390fd5b620000bb81620000ca60201b60201c565b5060018081905550506200024c565b5f805f9054906101000a900473ffffffffffffffffffffffffffffffffffffffff169050815f806101000a81548173ffffffffffffffffffffffffffffffffffffffff021916908373ffffffffffffffffffffffffffffffffffffffff1602179055508173ffffffffffffffffffffffffffffffffffffffff168173ffffffffffffffffffffffffffffffffffffffff167f8be0079c531659141344cd1fd0a4f28419497f9722a3daafe3b4186f6b6457e060405160405180910390a35050565b5f80fd5b5f73ffffffffffffffffffffffffffffffffffffffff82169050919050565b5f620001ba826200018f565b9050919050565b620001cc81620001ae565b8114620001d7575f80fd5b50565b5f81519050620001ea81620001c1565b92915050565b5f602082840312156200020857620002076200018b565b5b5f6200021784828501620001da565b91505092915050565b6200022b81620001ae565b82525050565b5f602082019050620002465f83018462000220565b92915050565b611182806200025a5f395ff3fe60806040526004361061009f575f3560e01c8063853828b611610063578063853828b61461014e5780638da5cb5b14610164578063990de8ae1461018e578063a0d1fe42146101b8578063a5c68c59146101f4578063f2fde38b14610232576100ae565b806312065fe0146100b25780632755cd2d146100dc5780632e1a7d4d146100e6578063715018a61461010e5780637dc1a64f14610124576100ae565b366100ae576100ac61025a565b005b5f80fd5b3480156100bd575f80fd5b506100c6610377565b6040516100d39190610b3f565b60405180910390f35b6100e461037e565b005b3480156100f1575f80fd5b5061010c60048036038101906101079190610b86565b6103ca565b005b348015610119575f80fd5b50610122610571565b005b34801561012f575f80fd5b50610138610584565b6040516101459190610b3f565b60405180910390f35b348015610159575f80fd5b50610162610590565b005b34801561016f575f80fd5b506101786106f8565b6040516101859190610bf0565b60405180910390f35b348015610199575f80fd5b506101a261071f565b6040516101af9190610b3f565b60405180910390f35b3480156101c3575f80fd5b506101de60048036038101906101d99190610b86565b610725565b6040516101eb9190610d0f565b60405180910390f35b3480156101ff575f80fd5b5061021a60048036038101906102159190610b86565b61087d565b60405161022993929190610d2f565b60405180910390f35b34801561023d575f80fd5b5061025860048036038101906102539190610d8e565b6108d1565b005b600260405180606001604052803373ffffffffffffffffffffffffffffffffffffffff16815260200134815260200142815250908060018154018082558091505060019003905f5260205f2090600302015f909190919091505f820151815f015f6101000a81548173ffffffffffffffffffffffffffffffffffffffff021916908373ffffffffffffffffffffffffffffffffffffffff160217905550602082015181600101556040820151816002015550503460035f82825461031e9190610de6565b925050819055503373ffffffffffffffffffffffffffffffffffffffff167f0c8883551f91e2ad37ae4c2a10d6e17258f93e629cb32666a8d1c46433c24ac2344260405161036d929190610e19565b60405180910390a2565b5f47905090565b5f34116103c0576040517f08c379a00000000000000000000000000000000000000000000000000000000081526004016103b790610ec0565b60405180910390fd5b6103c861025a565b565b6103d2610955565b6103da6109dc565b5f811161041c576040517f08c379a000000000000000000000000000000000000000000000000000000000815260040161041390610f28565b60405180910390fd5b4781111561045f576040517f08c379a000000000000000000000000000000000000000000000000000000000815260040161045690610f90565b60405180910390fd5b5f6104686106f8565b73ffffffffffffffffffffffffffffffffffffffff168260405161048b90610fdb565b5f6040518083038185875af1925050503d805f81146104c5576040519150601f19603f3d011682016040523d82523d5f602084013e6104ca565b606091505b505090508061050e576040517f08c379a000000000000000000000000000000000000000000000000000000000815260040161050590611039565b60405180910390fd5b6105166106f8565b73ffffffffffffffffffffffffffffffffffffffff167f92ccf450a286a957af52509bc1c9939d1a6a481783e142e41e2499f0bb66ebc6834260405161055d929190610e19565b60405180910390a25061056e610a22565b50565b610579610955565b6105825f610a2b565b565b5f600280549050905090565b610598610955565b6105a06109dc565b5f4790505f81116105e6576040517f08c379a00000000000000000000000000000000000000000000000000000000081526004016105dd906110a1565b60405180910390fd5b5f6105ef6106f8565b73ffffffffffffffffffffffffffffffffffffffff168260405161061290610fdb565b5f6040518083038185875af1925050503d805f811461064c576040519150601f19603f3d011682016040523d82523d5f602084013e610651565b606091505b5050905080610695576040517f08c379a000000000000000000000000000000000000000000000000000000000815260040161068c90611039565b60405180910390fd5b61069d6106f8565b73ffffffffffffffffffffffffffffffffffffffff167f92ccf450a286a957af52509bc1c9939d1a6a481783e142e41e2499f0bb66ebc683426040516106e4929190610e19565b60405180910390a250506106f6610a22565b565b5f805f9054906101000a900473ffffffffffffffffffffffffffffffffffffffff16905090565b60035481565b60605f60028054905090508083111561073c578092505b5f8367ffffffffffffffff811115610757576107566110bf565b5b60405190808252806020026020018201604052801561079057816020015b61077d610af3565b8152602001906001900390816107755790505b5090505f5b84811015610872576002816001856107ad91906110ec565b6107b791906110ec565b815481106107c8576107c761111f565b5b905f5260205f2090600302016040518060600160405290815f82015f9054906101000a900473ffffffffffffffffffffffffffffffffffffffff1673ffffffffffffffffffffffffffffffffffffffff1673ffffffffffffffffffffffffffffffffffffffff1681526020016001820154815260200160028201548152505082828151811061085a5761085961111f565b5b60200260200101819052508080600101915050610795565b508092505050919050565b6002818154811061088c575f80fd5b905f5260205f2090600302015f91509050805f015f9054906101000a900473ffffffffffffffffffffffffffffffffffffffff16908060010154908060020154905083565b6108d9610955565b5f73ffffffffffffffffffffffffffffffffffffffff168173ffffffffffffffffffffffffffffffffffffffff1603610949575f6040517f1e4fbdf70000000000000000000000000000000000000000000000000000000081526004016109409190610bf0565b60405180910390fd5b61095281610a2b565b50565b61095d610aec565b73ffffffffffffffffffffffffffffffffffffffff1661097b6106f8565b73ffffffffffffffffffffffffffffffffffffffff16146109da5761099e610aec565b6040517f118cdaa70000000000000000000000000000000000000000000000000000000081526004016109d19190610bf0565b60405180910390fd5b565b600260015403610a18576040517f3ee5aeb500000000000000000000000000000000000000000000000000000000815260040160405180910390fd5b6002600181905550565b60018081905550565b5f805f9054906101000a900473ffffffffffffffffffffffffffffffffffffffff169050815f806101000a81548173ffffffffffffffffffffffffffffffffffffffff021916908373ffffffffffffffffffffffffffffffffffffffff1602179055508173ffffffffffffffffffffffffffffffffffffffff168173ffffffffffffffffffffffffffffffffffffffff167f8be0079c531659141344cd1fd0a4f28419497f9722a3daafe3b4186f6b6457e060405160405180910390a35050565b5f33905090565b60405180606001604052805f73ffffffffffffffffffffffffffffffffffffffff1681526020015f81526020015f81525090565b5f819050919050565b610b3981610b27565b82525050565b5f602082019050610b525f830184610b30565b92915050565b5f80fd5b610b6581610b27565b8114610b6f575f80fd5b50565b5f81359050610b8081610b5c565b92915050565b5f60208284031215610b9b57610b9a610b58565b5b5f610ba884828501610b72565b91505092915050565b5f73ffffffffffffffffffffffffffffffffffffffff82169050919050565b5f610bda82610bb1565b9050919050565b610bea81610bd0565b82525050565b5f602082019050610c035f830184610be1565b92915050565b5f81519050919050565b5f82825260208201905092915050565b5f819050602082019050919050565b610c3b81610bd0565b82525050565b610c4a81610b27565b82525050565b606082015f820151610c645f850182610c32565b506020820151610c776020850182610c41565b506040820151610c8a6040850182610c41565b50505050565b5f610c9b8383610c50565b60608301905092915050565b5f602082019050919050565b5f610cbd82610c09565b610cc78185610c13565b9350610cd283610c23565b805f5b83811015610d02578151610ce98882610c90565b9750610cf483610ca7565b925050600181019050610cd5565b5085935050505092915050565b5f6020820190508181035f830152610d278184610cb3565b905092915050565b5f606082019050610d425f830186610be1565b610d4f6020830185610b30565b610d5c6040830184610b30565b949350505050565b610d6d81610bd0565b8114610d77575f80fd5b50565b5f81359050610d8881610d64565b92915050565b5f60208284031215610da357610da2610b58565b5b5f610db084828501610d7a565b91505092915050565b7f4e487b71000000000000000000000000000000000000000000000000000000005f52601160045260245ffd5b5f610df082610b27565b9150610dfb83610b27565b9250828201905080821115610e1357610e12610db9565b5b92915050565b5f604082019050610e2c5f830185610b30565b610e396020830184610b30565b9392505050565b5f82825260208201905092915050565b7f54697020616d6f756e74206d7573742062652067726561746572207468616e205f8201527f3000000000000000000000000000000000000000000000000000000000000000602082015250565b5f610eaa602183610e40565b9150610eb582610e50565b604082019050919050565b5f6020820190508181035f830152610ed781610e9e565b9050919050565b7f416d6f756e74206d7573742062652067726561746572207468616e20300000005f82015250565b5f610f12601d83610e40565b9150610f1d82610ede565b602082019050919050565b5f6020820190508181035f830152610f3f81610f06565b9050919050565b7f496e73756666696369656e742062616c616e63650000000000000000000000005f82015250565b5f610f7a601483610e40565b9150610f8582610f46565b602082019050919050565b5f6020820190508181035f830152610fa781610f6e565b9050919050565b5f81905092915050565b50565b5f610fc65f83610fae565b9150610fd182610fb8565b5f82019050919050565b5f610fe582610fbb565b9150819050919050565b7f5769746864726177616c206661696c65640000000000000000000000000000005f82015250565b5f611023601183610e40565b915061102e82610fef565b602082019050919050565b5f6020820190508181035f83015261105081611017565b9050919050565b7f4e6f2066756e647320746f2077697468647261770000000000000000000000005f82015250565b5f61108b601483610e40565b915061109682611057565b602082019050919050565b5f6020820190508181035f8301526110b88161107f565b9050919050565b7f4e487b71000000000000000000000000000000000000000000000000000000005f52604160045260245ffd5b5f6110f682610b27565b915061110183610b27565b925082820390508181111561111957611118610db9565b5b92915050565b7f4e487b71000000000000000000000000000000000000000000000000000000005f52603260045260245ffdfea2646970667358221220b208f2c8ce9cf37304f524d7e2f07441d004494f8bc7f8c4b1eea71220662ad264736f6c63430008180033a2646970667358221220e59257865564f72eb11f0cc3ee36fa5ccc85e7cbd683d909793144c190b5925864736f6c63430008180033","linkReferences":{}},"methodIdentifiers":{"allTipJars(uint256)":"dbeb02e6","createTipJar(string,string)":"082f5f43","getAllTipJars()":"67e4043c","getCIDByAddress(address)":"ff62d246","getCIDBySlug(string)":"b207f7b5","getTipJarBySlug(string)":"6bdfa203","getTipJarsByOwner(address)":"4ddc75f9","ownerTipJars(address,uint256)":"5a189038","slugToCID(string)":"358fcaf9","slugsToTipJar(string)":"a5349f8d","tipJarToSlug(address)":"812bdd6d","updateTipJarMetadata(string,string)":"ddfb543a"},"id":23}