{"abi":[{"type":"function","name":"allTipJars","inputs":[{"name":"","type":"uint256","internalType":"uint256"}],"outputs":[{"name":"","type":"address","internalType":"address"}],"stateMutability":"view"},{"type":"function","name":"createTipJar","inputs":[],"outputs":[{"name":"","type":"address","internalType":"address"}],"stateMutability":"nonpayable"},{"type":"function","name":"getAllTipJars","inputs":[],"outputs":[{"name":"","type":"address[]","internalType":"address[]"}],"stateMutability":"view"},{"type":"event","name":"TipJarCreated","inputs":[{"name":"owner","type":"address","indexed":true,"internalType":"address"},{"name":"tipJar","type":"address","indexed":false,"internalType":"address"}],"anonymous":false}],"bytecode":{"object":"0x608060405234801561000f575f80fd5b506110f48061001d5f395ff3fe608060405234801561000f575f80fd5b506004361061003f575f3560e01c806367e4043c146100435780636c5a34e014610061578063dbeb02e61461007f575b5f80fd5b61004b6100af565b6040516100589190610350565b60405180910390f35b610069610139565b604051610076919061037f565b60405180910390f35b610099600480360381019061009491906103cf565b610222565b6040516100a6919061037f565b60405180910390f35b60605f80548060200260200160405190810160405280929190818152602001828054801561012f57602002820191905f5260205f20905b815f9054906101000a900473ffffffffffffffffffffffffffffffffffffffff1673ffffffffffffffffffffffffffffffffffffffff16815260200190600101908083116100e6575b5050505050905090565b5f80336040516101489061025c565b610152919061037f565b604051809103905ff08015801561016b573d5f803e3d5ffd5b5090505f81908060018154018082558091505060019003905f5260205f20015f9091909190916101000a81548173ffffffffffffffffffffffffffffffffffffffff021916908373ffffffffffffffffffffffffffffffffffffffff1602179055503373ffffffffffffffffffffffffffffffffffffffff167f1cde9e58b3e74d1dfb4f2d937dda3ff3b2e865ec0f3bc334ab527ab0cf86c55982604051610213919061037f565b60405180910390a28091505090565b5f8181548110610230575f80fd5b905f5260205f20015f915054906101000a900473ffffffffffffffffffffffffffffffffffffffff1681565b610cc4806103fb83390190565b5f81519050919050565b5f82825260208201905092915050565b5f819050602082019050919050565b5f73ffffffffffffffffffffffffffffffffffffffff82169050919050565b5f6102bb82610292565b9050919050565b6102cb816102b1565b82525050565b5f6102dc83836102c2565b60208301905092915050565b5f602082019050919050565b5f6102fe82610269565b6103088185610273565b935061031383610283565b805f5b8381101561034357815161032a88826102d1565b9750610335836102e8565b925050600181019050610316565b5085935050505092915050565b5f6020820190508181035f83015261036881846102f4565b905092915050565b610379816102b1565b82525050565b5f6020820190506103925f830184610370565b92915050565b5f80fd5b5f819050919050565b6103ae8161039c565b81146103b8575f80fd5b50565b5f813590506103c9816103a5565b92915050565b5f602082840312156103e4576103e3610398565b5b5f6103f1848285016103bb565b9150509291505056fe608060405234801562000010575f80fd5b5060405162000cc438038062000cc48339818101604052810190620000369190620001e9565b805f73ffffffffffffffffffffffffffffffffffffffff168173ffffffffffffffffffffffffffffffffffffffff1603620000aa575f6040517f1e4fbdf7000000000000000000000000000000000000000000000000000000008152600401620000a191906200022a565b60405180910390fd5b620000bb81620000c360201b60201c565b505062000245565b5f805f9054906101000a900473ffffffffffffffffffffffffffffffffffffffff169050815f806101000a81548173ffffffffffffffffffffffffffffffffffffffff021916908373ffffffffffffffffffffffffffffffffffffffff1602179055508173ffffffffffffffffffffffffffffffffffffffff168173ffffffffffffffffffffffffffffffffffffffff167f8be0079c531659141344cd1fd0a4f28419497f9722a3daafe3b4186f6b6457e060405160405180910390a35050565b5f80fd5b5f73ffffffffffffffffffffffffffffffffffffffff82169050919050565b5f620001b38262000188565b9050919050565b620001c581620001a7565b8114620001d0575f80fd5b50565b5f81519050620001e381620001ba565b92915050565b5f6020828403121562000201576200020062000184565b5b5f6200021084828501620001d3565b91505092915050565b6200022481620001a7565b82525050565b5f6020820190506200023f5f83018462000219565b92915050565b610a7180620002535f395ff3fe608060405260043610610073575f3560e01c80639db5dbe41161004d5780639db5dbe414610122578063d0e30db01461014a578063e9bb84c214610154578063f2fde38b1461017c576100c8565b80633ccfd60b146100cc578063715018a6146100e25780638da5cb5b146100f8576100c8565b366100c8573373ffffffffffffffffffffffffffffffffffffffff167fd4f43975feb89f48dd30cabbb32011045be187d1e11c8ea9faa43efc35282519346040516100be91906107d9565b60405180910390a2005b5f80fd5b3480156100d7575f80fd5b506100e06101a4565b005b3480156100ed575f80fd5b506100f66102aa565b005b348015610103575f80fd5b5061010c6102bd565b6040516101199190610831565b60405180910390f35b34801561012d575f80fd5b50610148600480360381019061014391906108a2565b6102e4565b005b610152610381565b005b34801561015f575f80fd5b5061017a600480360381019061017591906108f2565b6103d1565b005b348015610187575f80fd5b506101a2600480360381019061019d9190610930565b6104d4565b005b6101ac610558565b5f4790505f3373ffffffffffffffffffffffffffffffffffffffff16826040516101d590610988565b5f6040518083038185875af1925050503d805f811461020f576040519150601f19603f3d011682016040523d82523d5f602084013e610214565b606091505b5050905080610258576040517f08c379a000000000000000000000000000000000000000000000000000000000815260040161024f906109f6565b60405180910390fd5b3373ffffffffffffffffffffffffffffffffffffffff167f884edad9ce6fa2440d8a54cc123490eb96d2768479d49ff9c7366125a94243648360405161029e91906107d9565b60405180910390a25050565b6102b2610558565b6102bb5f6105df565b565b5f805f9054906101000a900473ffffffffffffffffffffffffffffffffffffffff16905090565b6102ec610558565b61031782828573ffffffffffffffffffffffffffffffffffffffff166106a09092919063ffffffff16565b8273ffffffffffffffffffffffffffffffffffffffff168273ffffffffffffffffffffffffffffffffffffffff167f33c35f9541201e342d5e7467016e65a0a06182eb12a5f17103f71cec95b6cb298360405161037491906107d9565b60405180910390a3505050565b3373ffffffffffffffffffffffffffffffffffffffff167fd4f43975feb89f48dd30cabbb32011045be187d1e11c8ea9faa43efc35282519346040516103c791906107d9565b60405180910390a2565b6103d9610558565b5f8273ffffffffffffffffffffffffffffffffffffffff16826040516103fe90610988565b5f6040518083038185875af1925050503d805f8114610438576040519150601f19603f3d011682016040523d82523d5f602084013e61043d565b606091505b5050905080610481576040517f08c379a0000000000000000000000000000000000000000000000000000000008152600401610478906109f6565b60405180910390fd5b8273ffffffffffffffffffffffffffffffffffffffff167f884edad9ce6fa2440d8a54cc123490eb96d2768479d49ff9c7366125a9424364836040516104c791906107d9565b60405180910390a2505050565b6104dc610558565b5f73ffffffffffffffffffffffffffffffffffffffff168173ffffffffffffffffffffffffffffffffffffffff160361054c575f6040517f1e4fbdf70000000000000000000000000000000000000000000000000000000081526004016105439190610831565b60405180910390fd5b610555816105df565b50565b61056061071f565b73ffffffffffffffffffffffffffffffffffffffff1661057e6102bd565b73ffffffffffffffffffffffffffffffffffffffff16146105dd576105a161071f565b6040517f118cdaa70000000000000000000000000000000000000000000000000000000081526004016105d49190610831565b60405180910390fd5b565b5f805f9054906101000a900473ffffffffffffffffffffffffffffffffffffffff169050815f806101000a81548173ffffffffffffffffffffffffffffffffffffffff021916908373ffffffffffffffffffffffffffffffffffffffff1602179055508173ffffffffffffffffffffffffffffffffffffffff168173ffffffffffffffffffffffffffffffffffffffff167f8be0079c531659141344cd1fd0a4f28419497f9722a3daafe3b4186f6b6457e060405160405180910390a35050565b61071a838473ffffffffffffffffffffffffffffffffffffffff1663a9059cbb85856040516024016106d3929190610a14565b604051602081830303815290604052915060e01b6020820180517bffffffffffffffffffffffffffffffffffffffffffffffffffffffff8381831617835250505050610726565b505050565b5f33905090565b5f8060205f8451602086015f885af180610745576040513d5f823e3d81fd5b3d92505f519150505f821461075e576001811415610779565b5f8473ffffffffffffffffffffffffffffffffffffffff163b145b156107bb57836040517f5274afe70000000000000000000000000000000000000000000000000000000081526004016107b29190610831565b60405180910390fd5b50505050565b5f819050919050565b6107d3816107c1565b82525050565b5f6020820190506107ec5f8301846107ca565b92915050565b5f73ffffffffffffffffffffffffffffffffffffffff82169050919050565b5f61081b826107f2565b9050919050565b61082b81610811565b82525050565b5f6020820190506108445f830184610822565b92915050565b5f80fd5b61085781610811565b8114610861575f80fd5b50565b5f813590506108728161084e565b92915050565b610881816107c1565b811461088b575f80fd5b50565b5f8135905061089c81610878565b92915050565b5f805f606084860312156108b9576108b861084a565b5b5f6108c686828701610864565b93505060206108d786828701610864565b92505060406108e88682870161088e565b9150509250925092565b5f80604083850312156109085761090761084a565b5b5f61091585828601610864565b92505060206109268582860161088e565b9150509250929050565b5f602082840312156109455761094461084a565b5b5f61095284828501610864565b91505092915050565b5f81905092915050565b50565b5f6109735f8361095b565b915061097e82610965565b5f82019050919050565b5f61099282610968565b9150819050919050565b5f82825260208201905092915050565b7f4661696c656420746f2073656e642045746865720000000000000000000000005f82015250565b5f6109e060148361099c565b91506109eb826109ac565b602082019050919050565b5f6020820190508181035f830152610a0d816109d4565b9050919050565b5f604082019050610a275f830185610822565b610a3460208301846107ca565b939250505056fea2646970667358221220368926aff3a570213b4a00c154ded5f81f67ef82b8ca9f550db1f57b0807f8fc64736f6c63430008140033a26469706673582212207737d01444a51ab39d32fdb8377f08cb57ed5550265cd2476f33c07b555075ce64736f6c63430008140033","linkReferences":{}},"methodIdentifiers":{"allTipJars(uint256)":"dbeb02e6","createTipJar()":"6c5a34e0","getAllTipJars()":"67e4043c"},"id":10}