{"abi":[{"type":"function","name":"allTipJars","inputs":[{"name":"","type":"uint256","internalType":"uint256"}],"outputs":[{"name":"","type":"address","internalType":"address"}],"stateMutability":"view"},{"type":"function","name":"createTipJar","inputs":[{"name":"slug","type":"string","internalType":"string"},{"name":"cid","type":"string","internalType":"string"}],"outputs":[{"name":"","type":"address","internalType":"address"}],"stateMutability":"nonpayable"},{"type":"function","name":"getAllTipJars","inputs":[],"outputs":[{"name":"","type":"address[]","internalType":"address[]"}],"stateMutability":"view"},{"type":"function","name":"getCIDByAddress","inputs":[{"name":"tipJar","type":"address","internalType":"address"}],"outputs":[{"name":"","type":"string","internalType":"string"}],"stateMutability":"view"},{"type":"function","name":"getTipJarBySlug","inputs":[{"name":"slug","type":"string","internalType":"string"}],"outputs":[{"name":"","type":"address","internalType":"address"}],"stateMutability":"view"},{"type":"function","name":"slugToCID","inputs":[{"name":"","type":"string","internalType":"string"}],"outputs":[{"name":"","type":"string","internalType":"string"}],"stateMutability":"view"},{"type":"function","name":"slugsToTipJar","inputs":[{"name":"","type":"string","internalType":"string"}],"outputs":[{"name":"","type":"address","internalType":"address"}],"stateMutability":"view"},{"type":"function","name":"tipJarToSlug","inputs":[{"name":"","type":"address","internalType":"address"}],"outputs":[{"name":"","type":"string","internalType":"string"}],"stateMutability":"view"},{"type":"event","name":"TipJarCreated","inputs":[{"name":"owner","type":"address","indexed":true,"internalType":"address"},{"name":"tipJar","type":"address","indexed":false,"internalType":"address"},{"name":"slug","type":"string","indexed":false,"internalType":"string"}],"anonymous":false},{"type":"error","name":"SlugAlreadyExists","inputs":[{"name":"slug","type":"string","internalType":"string"}]}],"bytecode":{"object":"0x608060405234801561000f575f80fd5b50611e8e8061001d5f395ff3fe608060405234801562000010575f80fd5b506004361062000092575f3560e01c8063812bdd6d1162000061578063812bdd6d146200015a578063a5349f8d1462000190578063dbeb02e614620001c6578063ff62d24614620001fc5762000092565b8063082f5f431462000096578063358fcaf914620000cc57806367e4043c14620001025780636bdfa2031462000124575b5f80fd5b620000b46004803603810190620000ae9190620009d8565b62000232565b604051620000c3919062000a9e565b60405180910390f35b620000ea6004803603810190620000e4919062000ab9565b620004b8565b604051620000f9919062000b8c565b60405180910390f35b6200010c62000573565b6040516200011b919062000c75565b60405180910390f35b6200014260048036038101906200013c919062000ab9565b62000600565b60405162000151919062000a9e565b60405180910390f35b62000178600480360381019062000172919062000cc6565b62000647565b60405162000187919062000b8c565b60405180910390f35b620001ae6004803603810190620001a8919062000ab9565b620006ea565b604051620001bd919062000a9e565b60405180910390f35b620001e46004803603810190620001de919062000d2e565b62000731565b604051620001f3919062000a9e565b60405180910390f35b6200021a600480360381019062000214919062000cc6565b6200076d565b60405162000229919062000b8c565b60405180910390f35b5f8073ffffffffffffffffffffffffffffffffffffffff165f846040516200025b919062000d9e565b90815260200160405180910390205f9054906101000a900473ffffffffffffffffffffffffffffffffffffffff1673ffffffffffffffffffffffffffffffffffffffff1614620002e457826040517fc7a3bc01000000000000000000000000000000000000000000000000000000008152600401620002db919062000b8c565b60405180910390fd5b5f33604051620002f49062000861565b62000300919062000a9e565b604051809103905ff0801580156200031a573d5f803e3d5ffd5b5090505f819050600381908060018154018082558091505060019003905f5260205f20015f9091909190916101000a81548173ffffffffffffffffffffffffffffffffffffffff021916908373ffffffffffffffffffffffffffffffffffffffff160217905550805f8660405162000393919062000d9e565b90815260200160405180910390205f6101000a81548173ffffffffffffffffffffffffffffffffffffffff021916908373ffffffffffffffffffffffffffffffffffffffff1602179055508460015f8373ffffffffffffffffffffffffffffffffffffffff1673ffffffffffffffffffffffffffffffffffffffff1681526020019081526020015f2090816200042a919062000fda565b50836002866040516200043e919062000d9e565b908152602001604051809103902090816200045a919062000fda565b503373ffffffffffffffffffffffffffffffffffffffff167f4c04b6ebb08a7e0757a9a8eaf7b29a3b71e8fab65a383cea1be8dcfa5abc9d6c8287604051620004a5929190620010be565b60405180910390a2809250505092915050565b6002818051602081018201805184825260208301602085012081835280955050505050505f915090508054620004ee9062000de3565b80601f01602080910402602001604051908101604052809291908181526020018280546200051c9062000de3565b80156200056b5780601f1062000541576101008083540402835291602001916200056b565b820191905f5260205f20905b8154815290600101906020018083116200054d57829003601f168201915b505050505081565b60606003805480602002602001604051908101604052809291908181526020018280548015620005f657602002820191905f5260205f20905b815f9054906101000a900473ffffffffffffffffffffffffffffffffffffffff1673ffffffffffffffffffffffffffffffffffffffff1681526020019060010190808311620005ac575b5050505050905090565b5f808260405162000612919062000d9e565b90815260200160405180910390205f9054906101000a900473ffffffffffffffffffffffffffffffffffffffff169050919050565b6001602052805f5260405f205f915090508054620006659062000de3565b80601f0160208091040260200160405190810160405280929190818152602001828054620006939062000de3565b8015620006e25780601f10620006b857610100808354040283529160200191620006e2565b820191905f5260205f20905b815481529060010190602001808311620006c457829003601f168201915b505050505081565b5f818051602081018201805184825260208301602085012081835280955050505050505f915054906101000a900473ffffffffffffffffffffffffffffffffffffffff1681565b6003818154811062000741575f80fd5b905f5260205f20015f915054906101000a900473ffffffffffffffffffffffffffffffffffffffff1681565b6060600260015f8473ffffffffffffffffffffffffffffffffffffffff1673ffffffffffffffffffffffffffffffffffffffff1681526020019081526020015f20604051620007bd91906200117c565b90815260200160405180910390208054620007d89062000de3565b80601f0160208091040260200160405190810160405280929190818152602001828054620008069062000de3565b8015620008555780601f106200082b5761010080835404028352916020019162000855565b820191905f5260205f20905b8154815290600101906020018083116200083757829003601f168201915b50505050509050919050565b610cc4806200119583390190565b5f604051905090565b5f80fd5b5f80fd5b5f80fd5b5f80fd5b5f601f19601f8301169050919050565b7f4e487b71000000000000000000000000000000000000000000000000000000005f52604160045260245ffd5b620008d08262000888565b810181811067ffffffffffffffff82111715620008f257620008f162000898565b5b80604052505050565b5f620009066200086f565b9050620009148282620008c5565b919050565b5f67ffffffffffffffff82111562000936576200093562000898565b5b620009418262000888565b9050602081019050919050565b828183375f83830152505050565b5f620009726200096c8462000919565b620008fb565b90508281526020810184848401111562000991576200099062000884565b5b6200099e8482856200094e565b509392505050565b5f82601f830112620009bd57620009bc62000880565b5b8135620009cf8482602086016200095c565b91505092915050565b5f8060408385031215620009f157620009f062000878565b5b5f83013567ffffffffffffffff81111562000a115762000a106200087c565b5b62000a1f85828601620009a6565b925050602083013567ffffffffffffffff81111562000a435762000a426200087c565b5b62000a5185828601620009a6565b9150509250929050565b5f73ffffffffffffffffffffffffffffffffffffffff82169050919050565b5f62000a868262000a5b565b9050919050565b62000a988162000a7a565b82525050565b5f60208201905062000ab35f83018462000a8d565b92915050565b5f6020828403121562000ad15762000ad062000878565b5b5f82013567ffffffffffffffff81111562000af15762000af06200087c565b5b62000aff84828501620009a6565b91505092915050565b5f81519050919050565b5f82825260208201905092915050565b5f5b8381101562000b4157808201518184015260208101905062000b24565b5f8484015250505050565b5f62000b588262000b08565b62000b64818562000b12565b935062000b7681856020860162000b22565b62000b818162000888565b840191505092915050565b5f6020820190508181035f83015262000ba6818462000b4c565b905092915050565b5f81519050919050565b5f82825260208201905092915050565b5f819050602082019050919050565b62000be28162000a7a565b82525050565b5f62000bf5838362000bd7565b60208301905092915050565b5f602082019050919050565b5f62000c198262000bae565b62000c25818562000bb8565b935062000c328362000bc8565b805f5b8381101562000c6857815162000c4c888262000be8565b975062000c598362000c01565b92505060018101905062000c35565b5085935050505092915050565b5f6020820190508181035f83015262000c8f818462000c0d565b905092915050565b62000ca28162000a7a565b811462000cad575f80fd5b50565b5f8135905062000cc08162000c97565b92915050565b5f6020828403121562000cde5762000cdd62000878565b5b5f62000ced8482850162000cb0565b91505092915050565b5f819050919050565b62000d0a8162000cf6565b811462000d15575f80fd5b50565b5f8135905062000d288162000cff565b92915050565b5f6020828403121562000d465762000d4562000878565b5b5f62000d558482850162000d18565b91505092915050565b5f81905092915050565b5f62000d748262000b08565b62000d80818562000d5e565b935062000d9281856020860162000b22565b80840191505092915050565b5f62000dab828462000d68565b915081905092915050565b7f4e487b71000000000000000000000000000000000000000000000000000000005f52602260045260245ffd5b5f600282049050600182168062000dfb57607f821691505b60208210810362000e115762000e1062000db6565b5b50919050565b5f819050815f5260205f209050919050565b5f6020601f8301049050919050565b5f82821b905092915050565b5f6008830262000e757fffffffffffffffffffffffffffffffffffffffffffffffffffffffffffffffff8262000e38565b62000e81868362000e38565b95508019841693508086168417925050509392505050565b5f819050919050565b5f62000ec262000ebc62000eb68462000cf6565b62000e99565b62000cf6565b9050919050565b5f819050919050565b62000edd8362000ea2565b62000ef562000eec8262000ec9565b84845462000e44565b825550505050565b5f90565b62000f0b62000efd565b62000f1881848462000ed2565b505050565b5b8181101562000f3f5762000f335f8262000f01565b60018101905062000f1e565b5050565b601f82111562000f8e5762000f588162000e17565b62000f638462000e29565b8101602085101562000f73578190505b62000f8b62000f828562000e29565b83018262000f1d565b50505b505050565b5f82821c905092915050565b5f62000fb05f198460080262000f93565b1980831691505092915050565b5f62000fca838362000f9f565b9150826002028217905092915050565b62000fe58262000b08565b67ffffffffffffffff81111562001001576200100062000898565b5b6200100d825462000de3565b6200101a82828562000f43565b5f60209050601f83116001811462001050575f84156200103b578287015190505b62001047858262000fbd565b865550620010b6565b601f198416620010608662000e17565b5f5b82811015620010895784890151825560018201915060208501945060208101905062001062565b86831015620010a95784890151620010a5601f89168262000f9f565b8355505b6001600288020188555050505b505050505050565b5f604082019050620010d35f83018562000a8d565b8181036020830152620010e7818462000b4c565b90509392505050565b5f8154620010fe8162000de3565b6200110a818662000d5e565b9450600182165f81146200112757600181146200113d5762001173565b60ff198316865281151582028601935062001173565b620011488562000e17565b5f5b838110156200116b578154818901526001820191506020810190506200114a565b838801955050505b50505092915050565b5f620011898284620010f0565b91508190509291505056fe608060405234801562000010575f80fd5b5060405162000cc438038062000cc48339818101604052810190620000369190620001e9565b805f73ffffffffffffffffffffffffffffffffffffffff168173ffffffffffffffffffffffffffffffffffffffff1603620000aa575f6040517f1e4fbdf7000000000000000000000000000000000000000000000000000000008152600401620000a191906200022a565b60405180910390fd5b620000bb81620000c360201b60201c565b505062000245565b5f805f9054906101000a900473ffffffffffffffffffffffffffffffffffffffff169050815f806101000a81548173ffffffffffffffffffffffffffffffffffffffff021916908373ffffffffffffffffffffffffffffffffffffffff1602179055508173ffffffffffffffffffffffffffffffffffffffff168173ffffffffffffffffffffffffffffffffffffffff167f8be0079c531659141344cd1fd0a4f28419497f9722a3daafe3b4186f6b6457e060405160405180910390a35050565b5f80fd5b5f73ffffffffffffffffffffffffffffffffffffffff82169050919050565b5f620001b38262000188565b9050919050565b620001c581620001a7565b8114620001d0575f80fd5b50565b5f81519050620001e381620001ba565b92915050565b5f6020828403121562000201576200020062000184565b5b5f6200021084828501620001d3565b91505092915050565b6200022481620001a7565b82525050565b5f6020820190506200023f5f83018462000219565b92915050565b610a7180620002535f395ff3fe608060405260043610610073575f3560e01c80639db5dbe41161004d5780639db5dbe414610122578063d0e30db01461014a578063e9bb84c214610154578063f2fde38b1461017c576100c8565b80633ccfd60b146100cc578063715018a6146100e25780638da5cb5b146100f8576100c8565b366100c8573373ffffffffffffffffffffffffffffffffffffffff167fd4f43975feb89f48dd30cabbb32011045be187d1e11c8ea9faa43efc35282519346040516100be91906107d9565b60405180910390a2005b5f80fd5b3480156100d7575f80fd5b506100e06101a4565b005b3480156100ed575f80fd5b506100f66102aa565b005b348015610103575f80fd5b5061010c6102bd565b6040516101199190610831565b60405180910390f35b34801561012d575f80fd5b50610148600480360381019061014391906108a2565b6102e4565b005b610152610381565b005b34801561015f575f80fd5b5061017a600480360381019061017591906108f2565b6103d1565b005b348015610187575f80fd5b506101a2600480360381019061019d9190610930565b6104d4565b005b6101ac610558565b5f4790505f3373ffffffffffffffffffffffffffffffffffffffff16826040516101d590610988565b5f6040518083038185875af1925050503d805f811461020f576040519150601f19603f3d011682016040523d82523d5f602084013e610214565b606091505b5050905080610258576040517f08c379a000000000000000000000000000000000000000000000000000000000815260040161024f906109f6565b60405180910390fd5b3373ffffffffffffffffffffffffffffffffffffffff167f884edad9ce6fa2440d8a54cc123490eb96d2768479d49ff9c7366125a94243648360405161029e91906107d9565b60405180910390a25050565b6102b2610558565b6102bb5f6105df565b565b5f805f9054906101000a900473ffffffffffffffffffffffffffffffffffffffff16905090565b6102ec610558565b61031782828573ffffffffffffffffffffffffffffffffffffffff166106a09092919063ffffffff16565b8273ffffffffffffffffffffffffffffffffffffffff168273ffffffffffffffffffffffffffffffffffffffff167f33c35f9541201e342d5e7467016e65a0a06182eb12a5f17103f71cec95b6cb298360405161037491906107d9565b60405180910390a3505050565b3373ffffffffffffffffffffffffffffffffffffffff167fd4f43975feb89f48dd30cabbb32011045be187d1e11c8ea9faa43efc35282519346040516103c791906107d9565b60405180910390a2565b6103d9610558565b5f8273ffffffffffffffffffffffffffffffffffffffff16826040516103fe90610988565b5f6040518083038185875af1925050503d805f8114610438576040519150601f19603f3d011682016040523d82523d5f602084013e61043d565b606091505b5050905080610481576040517f08c379a0000000000000000000000000000000000000000000000000000000008152600401610478906109f6565b60405180910390fd5b8273ffffffffffffffffffffffffffffffffffffffff167f884edad9ce6fa2440d8a54cc123490eb96d2768479d49ff9c7366125a9424364836040516104c791906107d9565b60405180910390a2505050565b6104dc610558565b5f73ffffffffffffffffffffffffffffffffffffffff168173ffffffffffffffffffffffffffffffffffffffff160361054c575f6040517f1e4fbdf70000000000000000000000000000000000000000000000000000000081526004016105439190610831565b60405180910390fd5b610555816105df565b50565b61056061071f565b73ffffffffffffffffffffffffffffffffffffffff1661057e6102bd565b73ffffffffffffffffffffffffffffffffffffffff16146105dd576105a161071f565b6040517f118cdaa70000000000000000000000000000000000000000000000000000000081526004016105d49190610831565b60405180910390fd5b565b5f805f9054906101000a900473ffffffffffffffffffffffffffffffffffffffff169050815f806101000a81548173ffffffffffffffffffffffffffffffffffffffff021916908373ffffffffffffffffffffffffffffffffffffffff1602179055508173ffffffffffffffffffffffffffffffffffffffff168173ffffffffffffffffffffffffffffffffffffffff167f8be0079c531659141344cd1fd0a4f28419497f9722a3daafe3b4186f6b6457e060405160405180910390a35050565b61071a838473ffffffffffffffffffffffffffffffffffffffff1663a9059cbb85856040516024016106d3929190610a14565b604051602081830303815290604052915060e01b6020820180517bffffffffffffffffffffffffffffffffffffffffffffffffffffffff8381831617835250505050610726565b505050565b5f33905090565b5f8060205f8451602086015f885af180610745576040513d5f823e3d81fd5b3d92505f519150505f821461075e576001811415610779565b5f8473ffffffffffffffffffffffffffffffffffffffff163b145b156107bb57836040517f5274afe70000000000000000000000000000000000000000000000000000000081526004016107b29190610831565b60405180910390fd5b50505050565b5f819050919050565b6107d3816107c1565b82525050565b5f6020820190506107ec5f8301846107ca565b92915050565b5f73ffffffffffffffffffffffffffffffffffffffff82169050919050565b5f61081b826107f2565b9050919050565b61082b81610811565b82525050565b5f6020820190506108445f830184610822565b92915050565b5f80fd5b61085781610811565b8114610861575f80fd5b50565b5f813590506108728161084e565b92915050565b610881816107c1565b811461088b575f80fd5b50565b5f8135905061089c81610878565b92915050565b5f805f606084860312156108b9576108b861084a565b5b5f6108c686828701610864565b93505060206108d786828701610864565b92505060406108e88682870161088e565b9150509250925092565b5f80604083850312156109085761090761084a565b5b5f61091585828601610864565b92505060206109268582860161088e565b9150509250929050565b5f602082840312156109455761094461084a565b5b5f61095284828501610864565b91505092915050565b5f81905092915050565b50565b5f6109735f8361095b565b915061097e82610965565b5f82019050919050565b5f61099282610968565b9150819050919050565b5f82825260208201905092915050565b7f4661696c656420746f2073656e642045746865720000000000000000000000005f82015250565b5f6109e060148361099c565b91506109eb826109ac565b602082019050919050565b5f6020820190508181035f830152610a0d816109d4565b9050919050565b5f604082019050610a275f830185610822565b610a3460208301846107ca565b939250505056fea2646970667358221220368926aff3a570213b4a00c154ded5f81f67ef82b8ca9f550db1f57b0807f8fc64736f6c63430008140033a2646970667358221220d7fabeb02a1401f0f2d559697103d88c91394b1292b399634ed47f7b28f53b1e64736f6c63430008140033","linkReferences":{}},"methodIdentifiers":{"allTipJars(uint256)":"dbeb02e6","createTipJar(string,string)":"082f5f43","getAllTipJars()":"67e4043c","getCIDByAddress(address)":"ff62d246","getTipJarBySlug(string)":"6bdfa203","slugToCID(string)":"358fcaf9","slugsToTipJar(string)":"a5349f8d","tipJarToSlug(address)":"812bdd6d"},"id":10}