{
    "abi": [
        {
            "type": "constructor",
            "inputs": [
                {
                    "name": "initialOwner",
                    "type": "address",
                    "internalType": "address"
                }
            ],
            "stateMutability": "nonpayable"
        },
        {
            "type": "receive",
            "stateMutability": "payable"
        },
        {
            "type": "function",
            "name": "getBalance",
            "inputs": [],
            "outputs": [
                {
                    "name": "",
                    "type": "uint256",
                    "internalType": "uint256"
                }
            ],
            "stateMutability": "view"
        },
        {
            "type": "function",
            "name": "getRecentTips",
            "inputs": [
                {
                    "name": "limit",
                    "type": "uint256",
                    "internalType": "uint256"
                }
            ],
            "outputs": [
                {
                    "name": "",
                    "type": "tuple[]",
                    "internalType": "struct TipJar.Tip[]",
                    "components": [
                        {
                            "name": "sender",
                            "type": "address",
                            "internalType": "address"
                        },
                        {
                            "name": "amount",
                            "type": "uint256",
                            "internalType": "uint256"
                        },
                        {
                            "name": "timestamp",
                            "type": "uint256",
                            "internalType": "uint256"
                        }
                    ]
                }
            ],
            "stateMutability": "view"
        },
        {
            "type": "function",
            "name": "getTipCount",
            "inputs": [],
            "outputs": [
                {
                    "name": "",
                    "type": "uint256",
                    "internalType": "uint256"
                }
            ],
            "stateMutability": "view"
        },
        {
            "type": "function",
            "name": "owner",
            "inputs": [],
            "outputs": [
                {
                    "name": "",
                    "type": "address",
                    "internalType": "address"
                }
            ],
            "stateMutability": "view"
        },
        {
            "type": "function",
            "name": "renounceOwnership",
            "inputs": [],
            "outputs": [],
            "stateMutability": "nonpayable"
        },
        {
            "type": "function",
            "name": "tip",
            "inputs": [],
            "outputs": [],
            "stateMutability": "payable"
        },
        {
            "type": "function",
            "name": "tips",
            "inputs": [
                {
                    "name": "",
                    "type": "uint256",
                    "internalType": "uint256"
                }
            ],
            "outputs": [
                {
                    "name": "sender",
                    "type": "address",
                    "internalType": "address"
                },
                {
                    "name": "amount",
                    "type": "uint256",
                    "internalType": "uint256"
                },
                {
                    "name": "timestamp",
                    "type": "uint256",
                    "internalType": "uint256"
                }
            ],
            "stateMutability": "view"
        },
        {
            "type": "function",
            "name": "totalTips",
            "inputs": [],
            "outputs": [
                {
                    "name": "",
                    "type": "uint256",
                    "internalType": "uint256"
                }
            ],
            "stateMutability": "view"
        },
        {
            "type": "function",
            "name": "transferOwnership",
            "inputs": [
                {
                    "name": "newOwner",
                    "type": "address",
                    "internalType": "address"
                }
            ],
            "outputs": [],
            "stateMutability": "nonpayable"
        },
        {
            "type": "function",
            "name": "withdraw",
            "inputs": [
                {
                    "name": "amount",
                    "type": "uint256",
                    "internalType": "uint256"
                }
            ],
            "outputs": [],
            "stateMutability": "nonpayable"
        },
        {
            "type": "function",
            "name": "withdrawAll",
            "inputs": [],
            "outputs": [],
            "stateMutability": "nonpayable"
        },
        {
            "type": "event",
            "name": "OwnershipTransferred",
            "inputs": [
                {
                    "name": "previousOwner",
                    "type": "address",
                    "indexed": true,
                    "internalType": "address"
                },
                {
                    "name": "newOwner",
                    "type": "address",
                    "indexed": true,
                    "internalType": "address"
                }
            ],
            "anonymous": false
        },
        {
            "type": "event",
            "name": "TipReceived",
            "inputs": [
                {
                    "name": "from",
                    "type": "address",
                    "indexed": true,
                    "internalType": "address"
                },
                {
                    "name": "amount",
                    "type": "uint256",
                    "indexed": false,
                    "internalType": "uint256"
                },
                {
                    "name": "timestamp",
                    "type": "uint256",
                    "indexed": false,
                    "internalType": "uint256"
                }
            ],
            "anonymous": false
        },
        {
            "type": "event",
            "name": "Withdrawn",
            "inputs": [
                {
                    "name": "to",
                    "type": "address",
                    "indexed": true,
                    "internalType": "address"
                },
                {
                    "name": "amount",
                    "type": "uint256",
                    "indexed": false,
                    "internalType": "uint256"
                },
                {
                    "name": "timestamp",
                    "type": "uint256",
                    "indexed": false,
                    "internalType": "uint256"
                }
            ],
            "anonymous": false
        },
        {
            "type": "error",
            "name": "OwnableInvalidOwner",
            "inputs": [
                {
                    "name": "owner",
                    "type": "address",
                    "internalType": "address"
                }
            ]
        },
        {
            "type": "error",
            "name": "OwnableUnauthorizedAccount",
            "inputs": [
                {
                    "name": "account",
                    "type": "address",
                    "internalType": "address"
                }
            ]
        },
        {
            "type": "error",
            "name": "ReentrancyGuardReentrantCall",
            "inputs": []
        }
    ],
    "bytecode": {
        "object": "0x608060405234801562000010575f80fd5b50604051620013dc380380620013dc8339818101604052810190620000369190620001f0565b805f73ffffffffffffffffffffffffffffffffffffffff168173ffffffffffffffffffffffffffffffffffffffff1603620000aa575f6040517f1e4fbdf7000000000000000000000000000000000000000000000000000000008152600401620000a1919062000231565b60405180910390fd5b620000bb81620000ca60201b60201c565b5060018081905550506200024c565b5f805f9054906101000a900473ffffffffffffffffffffffffffffffffffffffff169050815f806101000a81548173ffffffffffffffffffffffffffffffffffffffff021916908373ffffffffffffffffffffffffffffffffffffffff1602179055508173ffffffffffffffffffffffffffffffffffffffff168173ffffffffffffffffffffffffffffffffffffffff167f8be0079c531659141344cd1fd0a4f28419497f9722a3daafe3b4186f6b6457e060405160405180910390a35050565b5f80fd5b5f73ffffffffffffffffffffffffffffffffffffffff82169050919050565b5f620001ba826200018f565b9050919050565b620001cc81620001ae565b8114620001d7575f80fd5b50565b5f81519050620001ea81620001c1565b92915050565b5f602082840312156200020857620002076200018b565b5b5f6200021784828501620001da565b91505092915050565b6200022b81620001ae565b82525050565b5f602082019050620002465f83018462000220565b92915050565b611182806200025a5f395ff3fe60806040526004361061009f575f3560e01c8063853828b611610063578063853828b61461014e5780638da5cb5b14610164578063990de8ae1461018e578063a0d1fe42146101b8578063a5c68c59146101f4578063f2fde38b14610232576100ae565b806312065fe0146100b25780632755cd2d146100dc5780632e1a7d4d146100e6578063715018a61461010e5780637dc1a64f14610124576100ae565b366100ae576100ac61025a565b005b5f80fd5b3480156100bd575f80fd5b506100c6610377565b6040516100d39190610b3f565b60405180910390f35b6100e461037e565b005b3480156100f1575f80fd5b5061010c60048036038101906101079190610b86565b6103ca565b005b348015610119575f80fd5b50610122610571565b005b34801561012f575f80fd5b50610138610584565b6040516101459190610b3f565b60405180910390f35b348015610159575f80fd5b50610162610590565b005b34801561016f575f80fd5b506101786106f8565b6040516101859190610bf0565b60405180910390f35b348015610199575f80fd5b506101a261071f565b6040516101af9190610b3f565b60405180910390f35b3480156101c3575f80fd5b506101de60048036038101906101d99190610b86565b610725565b6040516101eb9190610d0f565b60405180910390f35b3480156101ff575f80fd5b5061021a60048036038101906102159190610b86565b61087d565b60405161022993929190610d2f565b60405180910390f35b34801561023d575f80fd5b5061025860048036038101906102539190610d8e565b6108d1565b005b600260405180606001604052803373ffffffffffffffffffffffffffffffffffffffff16815260200134815260200142815250908060018154018082558091505060019003905f5260205f2090600302015f909190919091505f820151815f015f6101000a81548173ffffffffffffffffffffffffffffffffffffffff021916908373ffffffffffffffffffffffffffffffffffffffff160217905550602082015181600101556040820151816002015550503460035f82825461031e9190610de6565b925050819055503373ffffffffffffffffffffffffffffffffffffffff167f0c8883551f91e2ad37ae4c2a10d6e17258f93e629cb32666a8d1c46433c24ac2344260405161036d929190610e19565b60405180910390a2565b5f47905090565b5f34116103c0576040517f08c379a00000000000000000000000000000000000000000000000000000000081526004016103b790610ec0565b60405180910390fd5b6103c861025a565b565b6103d2610955565b6103da6109dc565b5f811161041c576040517f08c379a000000000000000000000000000000000000000000000000000000000815260040161041390610f28565b60405180910390fd5b4781111561045f576040517f08c379a000000000000000000000000000000000000000000000000000000000815260040161045690610f90565b60405180910390fd5b5f6104686106f8565b73ffffffffffffffffffffffffffffffffffffffff168260405161048b90610fdb565b5f6040518083038185875af1925050503d805f81146104c5576040519150601f19603f3d011682016040523d82523d5f602084013e6104ca565b606091505b505090508061050e576040517f08c379a000000000000000000000000000000000000000000000000000000000815260040161050590611039565b60405180910390fd5b6105166106f8565b73ffffffffffffffffffffffffffffffffffffffff167f92ccf450a286a957af52509bc1c9939d1a6a481783e142e41e2499f0bb66ebc6834260405161055d929190610e19565b60405180910390a25061056e610a22565b50565b610579610955565b6105825f610a2b565b565b5f600280549050905090565b610598610955565b6105a06109dc565b5f4790505f81116105e6576040517f08c379a00000000000000000000000000000000000000000000000000000000081526004016105dd906110a1565b60405180910390fd5b5f6105ef6106f8565b73ffffffffffffffffffffffffffffffffffffffff168260405161061290610fdb565b5f6040518083038185875af1925050503d805f811461064c576040519150601f19603f3d011682016040523d82523d5f602084013e610651565b606091505b5050905080610695576040517f08c379a000000000000000000000000000000000000000000000000000000000815260040161068c90611039565b60405180910390fd5b61069d6106f8565b73ffffffffffffffffffffffffffffffffffffffff167f92ccf450a286a957af52509bc1c9939d1a6a481783e142e41e2499f0bb66ebc683426040516106e4929190610e19565b60405180910390a250506106f6610a22565b565b5f805f9054906101000a900473ffffffffffffffffffffffffffffffffffffffff16905090565b60035481565b60605f60028054905090508083111561073c578092505b5f8367ffffffffffffffff811115610757576107566110bf565b5b60405190808252806020026020018201604052801561079057816020015b61077d610af3565b8152602001906001900390816107755790505b5090505f5b84811015610872576002816001856107ad91906110ec565b6107b791906110ec565b815481106107c8576107c761111f565b5b905f5260205f2090600302016040518060600160405290815f82015f9054906101000a900473ffffffffffffffffffffffffffffffffffffffff1673ffffffffffffffffffffffffffffffffffffffff1673ffffffffffffffffffffffffffffffffffffffff1681526020016001820154815260200160028201548152505082828151811061085a5761085961111f565b5b60200260200101819052508080600101915050610795565b508092505050919050565b6002818154811061088c575f80fd5b905f5260205f2090600302015f91509050805f015f9054906101000a900473ffffffffffffffffffffffffffffffffffffffff16908060010154908060020154905083565b6108d9610955565b5f73ffffffffffffffffffffffffffffffffffffffff168173ffffffffffffffffffffffffffffffffffffffff1603610949575f6040517f1e4fbdf70000000000000000000000000000000000000000000000000000000081526004016109409190610bf0565b60405180910390fd5b61095281610a2b565b50565b61095d610aec565b73ffffffffffffffffffffffffffffffffffffffff1661097b6106f8565b73ffffffffffffffffffffffffffffffffffffffff16146109da5761099e610aec565b6040517f118cdaa70000000000000000000000000000000000000000000000000000000081526004016109d19190610bf0565b60405180910390fd5b565b600260015403610a18576040517f3ee5aeb500000000000000000000000000000000000000000000000000000000815260040160405180910390fd5b6002600181905550565b60018081905550565b5f805f9054906101000a900473ffffffffffffffffffffffffffffffffffffffff169050815f806101000a81548173ffffffffffffffffffffffffffffffffffffffff021916908373ffffffffffffffffffffffffffffffffffffffff1602179055508173ffffffffffffffffffffffffffffffffffffffff168173ffffffffffffffffffffffffffffffffffffffff167f8be0079c531659141344cd1fd0a4f28419497f9722a3daafe3b4186f6b6457e060405160405180910390a35050565b5f33905090565b60405180606001604052805f73ffffffffffffffffffffffffffffffffffffffff1681526020015f81526020015f81525090565b5f819050919050565b610b3981610b27565b82525050565b5f602082019050610b525f830184610b30565b92915050565b5f80fd5b610b6581610b27565b8114610b6f575f80fd5b50565b5f81359050610b8081610b5c565b92915050565b5f60208284031215610b9b57610b9a610b58565b5b5f610ba884828501610b72565b91505092915050565b5f73ffffffffffffffffffffffffffffffffffffffff82169050919050565b5f610bda82610bb1565b9050919050565b610bea81610bd0565b82525050565b5f602082019050610c035f830184610be1565b92915050565b5f81519050919050565b5f82825260208201905092915050565b5f819050602082019050919050565b610c3b81610bd0565b82525050565b610c4a81610b27565b82525050565b606082015f820151610c645f850182610c32565b506020820151610c776020850182610c41565b506040820151610c8a6040850182610c41565b50505050565b5f610c9b8383610c50565b60608301905092915050565b5f602082019050919050565b5f610cbd82610c09565b610cc78185610c13565b9350610cd283610c23565b805f5b83811015610d02578151610ce98882610c90565b9750610cf483610ca7565b925050600181019050610cd5565b5085935050505092915050565b5f6020820190508181035f830152610d278184610cb3565b905092915050565b5f606082019050610d425f830186610be1565b610d4f6020830185610b30565b610d5c6040830184610b30565b949350505050565b610d6d81610bd0565b8114610d77575f80fd5b50565b5f81359050610d8881610d64565b92915050565b5f60208284031215610da357610da2610b58565b5b5f610db084828501610d7a565b91505092915050565b7f4e487b71000000000000000000000000000000000000000000000000000000005f52601160045260245ffd5b5f610df082610b27565b9150610dfb83610b27565b9250828201905080821115610e1357610e12610db9565b5b92915050565b5f604082019050610e2c5f830185610b30565b610e396020830184610b30565b9392505050565b5f82825260208201905092915050565b7f54697020616d6f756e74206d7573742062652067726561746572207468616e205f8201527f3000000000000000000000000000000000000000000000000000000000000000602082015250565b5f610eaa602183610e40565b9150610eb582610e50565b604082019050919050565b5f6020820190508181035f830152610ed781610e9e565b9050919050565b7f416d6f756e74206d7573742062652067726561746572207468616e20300000005f82015250565b5f610f12601d83610e40565b9150610f1d82610ede565b602082019050919050565b5f6020820190508181035f830152610f3f81610f06565b9050919050565b7f496e73756666696369656e742062616c616e63650000000000000000000000005f82015250565b5f610f7a601483610e40565b9150610f8582610f46565b602082019050919050565b5f6020820190508181035f830152610fa781610f6e565b9050919050565b5f81905092915050565b50565b5f610fc65f83610fae565b9150610fd182610fb8565b5f82019050919050565b5f610fe582610fbb565b9150819050919050565b7f5769746864726177616c206661696c65640000000000000000000000000000005f82015250565b5f611023601183610e40565b915061102e82610fef565b602082019050919050565b5f6020820190508181035f83015261105081611017565b9050919050565b7f4e6f2066756e647320746f2077697468647261770000000000000000000000005f82015250565b5f61108b601483610e40565b915061109682611057565b602082019050919050565b5f6020820190508181035f8301526110b88161107f565b9050919050565b7f4e487b71000000000000000000000000000000000000000000000000000000005f52604160045260245ffd5b5f6110f682610b27565b915061110183610b27565b925082820390508181111561111957611118610db9565b5b92915050565b7f4e487b71000000000000000000000000000000000000000000000000000000005f52603260045260245ffdfea2646970667358221220a1055b4bef81f47b02af114203909565f9592dd48b69dc76bd6891077e4734ea64736f6c63430008180033",
        "linkReferences": {}
    },
    "methodIdentifiers": {
        "getBalance()": "12065fe0",
        "getRecentTips(uint256)": "a0d1fe42",
        "getTipCount()": "7dc1a64f",
        "owner()": "8da5cb5b",
        "renounceOwnership()": "715018a6",
        "tip()": "2755cd2d",
        "tips(uint256)": "a5c68c59",
        "totalTips()": "990de8ae",
        "transferOwnership(address)": "f2fde38b",
        "withdraw(uint256)": "2e1a7d4d",
        "withdrawAll()": "853828b6"
    },
    "id": 24
}